{
  "_format": "hh-sol-artifact-1",
  "contractName": "Ticketing",
  "sourceName": "contracts/Ticketing.sol",
  "abi": [
    {
      "inputs": [
        {
          "internalType": "address",
          "name": "sender",
          "type": "address"
        },
        {
          "internalType": "uint256",
          "name": "tokenId",
          "type": "uint256"
        },
        {
          "internalType": "address",
          "name": "owner",
          "type": "address"
        }
      ],
      "name": "ERC721IncorrectOwner",
      "type": "error"
    },
    {
      "inputs": [
        {
          "internalType": "address",
          "name": "operator",
          "type": "address"
        },
        {
          "internalType": "uint256",
          "name": "tokenId",
          "type": "uint256"
        }
      ],
      "name": "ERC721InsufficientApproval",
      "type": "error"
    },
    {
      "inputs": [
        {
          "internalType": "address",
          "name": "approver",
          "type": "address"
        }
      ],
      "name": "ERC721InvalidApprover",
      "type": "error"
    },
    {
      "inputs": [
        {
          "internalType": "address",
          "name": "operator",
          "type": "address"
        }
      ],
      "name": "ERC721InvalidOperator",
      "type": "error"
    },
    {
      "inputs": [
        {
          "internalType": "address",
          "name": "owner",
          "type": "address"
        }
      ],
      "name": "ERC721InvalidOwner",
      "type": "error"
    },
    {
      "inputs": [
        {
          "internalType": "address",
          "name": "receiver",
          "type": "address"
        }
      ],
      "name": "ERC721InvalidReceiver",
      "type": "error"
    },
    {
      "inputs": [
        {
          "internalType": "address",
          "name": "sender",
          "type": "address"
        }
      ],
      "name": "ERC721InvalidSender",
      "type": "error"
    },
    {
      "inputs": [
        {
          "internalType": "uint256",
          "name": "tokenId",
          "type": "uint256"
        }
      ],
      "name": "ERC721NonexistentToken",
      "type": "error"
    },
    {
      "inputs": [],
      "name": "InvalidInitialization",
      "type": "error"
    },
    {
      "inputs": [],
      "name": "NotInitializing",
      "type": "error"
    },
    {
      "inputs": [
        {
          "internalType": "address",
          "name": "owner",
          "type": "address"
        }
      ],
      "name": "OwnableInvalidOwner",
      "type": "error"
    },
    {
      "inputs": [
        {
          "internalType": "address",
          "name": "account",
          "type": "address"
        }
      ],
      "name": "OwnableUnauthorizedAccount",
      "type": "error"
    },
    {
      "anonymous": false,
      "inputs": [
        {
          "indexed": true,
          "internalType": "address",
          "name": "owner",
          "type": "address"
        },
        {
          "indexed": true,
          "internalType": "address",
          "name": "approved",
          "type": "address"
        },
        {
          "indexed": true,
          "internalType": "uint256",
          "name": "tokenId",
          "type": "uint256"
        }
      ],
      "name": "Approval",
      "type": "event"
    },
    {
      "anonymous": false,
      "inputs": [
        {
          "indexed": true,
          "internalType": "address",
          "name": "owner",
          "type": "address"
        },
        {
          "indexed": true,
          "internalType": "address",
          "name": "operator",
          "type": "address"
        },
        {
          "indexed": false,
          "internalType": "bool",
          "name": "approved",
          "type": "bool"
        }
      ],
      "name": "ApprovalForAll",
      "type": "event"
    },
    {
      "anonymous": false,
      "inputs": [
        {
          "indexed": false,
          "internalType": "uint64",
          "name": "version",
          "type": "uint64"
        }
      ],
      "name": "Initialized",
      "type": "event"
    },
    {
      "anonymous": false,
      "inputs": [
        {
          "indexed": true,
          "internalType": "address",
          "name": "previousOwner",
          "type": "address"
        },
        {
          "indexed": true,
          "internalType": "address",
          "name": "newOwner",
          "type": "address"
        }
      ],
      "name": "OwnershipTransferred",
      "type": "event"
    },
    {
      "anonymous": false,
      "inputs": [
        {
          "indexed": true,
          "internalType": "address",
          "name": "from",
          "type": "address"
        },
        {
          "indexed": true,
          "internalType": "address",
          "name": "to",
          "type": "address"
        },
        {
          "indexed": true,
          "internalType": "uint256",
          "name": "tokenId",
          "type": "uint256"
        }
      ],
      "name": "Transfer",
      "type": "event"
    },
    {
      "inputs": [
        {
          "internalType": "address",
          "name": "to",
          "type": "address"
        },
        {
          "internalType": "uint256",
          "name": "tokenId",
          "type": "uint256"
        }
      ],
      "name": "approve",
      "outputs": [],
      "stateMutability": "nonpayable",
      "type": "function"
    },
    {
      "inputs": [],
      "name": "availableTickets",
      "outputs": [
        {
          "internalType": "uint256",
          "name": "",
          "type": "uint256"
        }
      ],
      "stateMutability": "view",
      "type": "function"
    },
    {
      "inputs": [
        {
          "internalType": "address",
          "name": "owner",
          "type": "address"
        }
      ],
      "name": "balanceOf",
      "outputs": [
        {
          "internalType": "uint256",
          "name": "",
          "type": "uint256"
        }
      ],
      "stateMutability": "view",
      "type": "function"
    },
    {
      "inputs": [
        {
          "internalType": "uint256",
          "name": "tokenId",
          "type": "uint256"
        }
      ],
      "name": "getApproved",
      "outputs": [
        {
          "internalType": "address",
          "name": "",
          "type": "address"
        }
      ],
      "stateMutability": "view",
      "type": "function"
    },
    {
      "inputs": [],
      "name": "getAvailableTickets",
      "outputs": [
        {
          "internalType": "uint256",
          "name": "",
          "type": "uint256"
        }
      ],
      "stateMutability": "view",
      "type": "function"
    },
    {
      "inputs": [
        {
          "internalType": "uint256",
          "name": "tokenId",
          "type": "uint256"
        }
      ],
      "name": "getOwner",
      "outputs": [
        {
          "internalType": "address",
          "name": "",
          "type": "address"
        }
      ],
      "stateMutability": "view",
      "type": "function"
    },
    {
      "inputs": [],
      "name": "getTicketPrice",
      "outputs": [
        {
          "internalType": "uint256",
          "name": "",
          "type": "uint256"
        }
      ],
      "stateMutability": "view",
      "type": "function"
    },
    {
      "inputs": [
        {
          "internalType": "uint256",
          "name": "number",
          "type": "uint256"
        },
        {
          "internalType": "uint256",
          "name": "price",
          "type": "uint256"
        },
        {
          "internalType": "address",
          "name": "initialOwner",
          "type": "address"
        }
      ],
      "name": "initialize",
      "outputs": [],
      "stateMutability": "nonpayable",
      "type": "function"
    },
    {
      "inputs": [
        {
          "internalType": "address",
          "name": "owner",
          "type": "address"
        },
        {
          "internalType": "address",
          "name": "operator",
          "type": "address"
        }
      ],
      "name": "isApprovedForAll",
      "outputs": [
        {
          "internalType": "bool",
          "name": "",
          "type": "bool"
        }
      ],
      "stateMutability": "view",
      "type": "function"
    },
    {
      "inputs": [],
      "name": "mint",
      "outputs": [],
      "stateMutability": "payable",
      "type": "function"
    },
    {
      "inputs": [],
      "name": "name",
      "outputs": [
        {
          "internalType": "string",
          "name": "",
          "type": "string"
        }
      ],
      "stateMutability": "view",
      "type": "function"
    },
    {
      "inputs": [],
      "name": "owner",
      "outputs": [
        {
          "internalType": "address",
          "name": "",
          "type": "address"
        }
      ],
      "stateMutability": "view",
      "type": "function"
    },
    {
      "inputs": [
        {
          "internalType": "uint256",
          "name": "tokenId",
          "type": "uint256"
        }
      ],
      "name": "ownerOf",
      "outputs": [
        {
          "internalType": "address",
          "name": "",
          "type": "address"
        }
      ],
      "stateMutability": "view",
      "type": "function"
    },
    {
      "inputs": [],
      "name": "renounceOwnership",
      "outputs": [],
      "stateMutability": "nonpayable",
      "type": "function"
    },
    {
      "inputs": [
        {
          "internalType": "address",
          "name": "from",
          "type": "address"
        },
        {
          "internalType": "address",
          "name": "to",
          "type": "address"
        },
        {
          "internalType": "uint256",
          "name": "tokenId",
          "type": "uint256"
        }
      ],
      "name": "safeTransferFrom",
      "outputs": [],
      "stateMutability": "nonpayable",
      "type": "function"
    },
    {
      "inputs": [
        {
          "internalType": "address",
          "name": "from",
          "type": "address"
        },
        {
          "internalType": "address",
          "name": "to",
          "type": "address"
        },
        {
          "internalType": "uint256",
          "name": "tokenId",
          "type": "uint256"
        },
        {
          "internalType": "bytes",
          "name": "data",
          "type": "bytes"
        }
      ],
      "name": "safeTransferFrom",
      "outputs": [],
      "stateMutability": "nonpayable",
      "type": "function"
    },
    {
      "inputs": [
        {
          "internalType": "address",
          "name": "operator",
          "type": "address"
        },
        {
          "internalType": "bool",
          "name": "approved",
          "type": "bool"
        }
      ],
      "name": "setApprovalForAll",
      "outputs": [],
      "stateMutability": "nonpayable",
      "type": "function"
    },
    {
      "inputs": [
        {
          "internalType": "bytes4",
          "name": "interfaceId",
          "type": "bytes4"
        }
      ],
      "name": "supportsInterface",
      "outputs": [
        {
          "internalType": "bool",
          "name": "",
          "type": "bool"
        }
      ],
      "stateMutability": "view",
      "type": "function"
    },
    {
      "inputs": [],
      "name": "symbol",
      "outputs": [
        {
          "internalType": "string",
          "name": "",
          "type": "string"
        }
      ],
      "stateMutability": "view",
      "type": "function"
    },
    {
      "inputs": [],
      "name": "ticketPrice",
      "outputs": [
        {
          "internalType": "uint256",
          "name": "",
          "type": "uint256"
        }
      ],
      "stateMutability": "view",
      "type": "function"
    },
    {
      "inputs": [
        {
          "internalType": "uint256",
          "name": "tokenId",
          "type": "uint256"
        }
      ],
      "name": "tokenURI",
      "outputs": [
        {
          "internalType": "string",
          "name": "",
          "type": "string"
        }
      ],
      "stateMutability": "view",
      "type": "function"
    },
    {
      "inputs": [
        {
          "internalType": "address",
          "name": "from",
          "type": "address"
        },
        {
          "internalType": "address",
          "name": "to",
          "type": "address"
        },
        {
          "internalType": "uint256",
          "name": "tokenId",
          "type": "uint256"
        }
      ],
      "name": "transferFrom",
      "outputs": [],
      "stateMutability": "nonpayable",
      "type": "function"
    },
    {
      "inputs": [
        {
          "internalType": "address",
          "name": "newOwner",
          "type": "address"
        }
      ],
      "name": "transferOwnership",
      "outputs": [],
      "stateMutability": "nonpayable",
      "type": "function"
    },
    {
      "inputs": [],
      "name": "withdraw",
      "outputs": [],
      "stateMutability": "nonpayable",
      "type": "function"
    }
  ],
  "bytecode": "0x608060405234801561001057600080fd5b50612dc4806100206000396000f3fe60806040526004361061014b5760003560e01c806370a08231116100b6578063a6ab36f21161006f578063a6ab36f21461044d578063b88d4fde14610476578063c41a360a1461049f578063c87b56dd146104dc578063e985e9c514610519578063f2fde38b146105565761014b565b806370a082311461034f578063715018a61461038c57806387bb7ae0146103a35780638da5cb5b146103ce57806395d89b41146103f9578063a22cb465146104245761014b565b806323b872dd1161010857806323b872dd146102535780633ccfd60b1461027c5780633cfa7e011461029357806342842e0e146102be5780635a8acacc146102e75780636352211e146103125761014b565b806301ffc9a71461015057806306fdde031461018d578063081812fc146101b8578063095ea7b3146101f55780631209b1f61461021e5780631249c58b14610249575b600080fd5b34801561015c57600080fd5b50610177600480360381019061017291906120e4565b61057f565b604051610184919061212c565b60405180910390f35b34801561019957600080fd5b506101a2610661565b6040516101af91906121d7565b60405180910390f35b3480156101c457600080fd5b506101df60048036038101906101da919061222f565b610702565b6040516101ec919061229d565b60405180910390f35b34801561020157600080fd5b5061021c600480360381019061021791906122e4565b61071e565b005b34801561022a57600080fd5b50610233610734565b6040516102409190612333565b60405180910390f35b61025161073a565b005b34801561025f57600080fd5b5061027a6004803603810190610275919061234e565b610800565b005b34801561028857600080fd5b50610291610902565b005b34801561029f57600080fd5b506102a86109a3565b6040516102b59190612333565b60405180910390f35b3480156102ca57600080fd5b506102e560048036038101906102e0919061234e565b6109a9565b005b3480156102f357600080fd5b506102fc6109c9565b6040516103099190612333565b60405180910390f35b34801561031e57600080fd5b506103396004803603810190610334919061222f565b6109d2565b604051610346919061229d565b60405180910390f35b34801561035b57600080fd5b50610376600480360381019061037191906123a1565b6109e4565b6040516103839190612333565b60405180910390f35b34801561039857600080fd5b506103a1610aad565b005b3480156103af57600080fd5b506103b8610ac1565b6040516103c59190612333565b60405180910390f35b3480156103da57600080fd5b506103e3610acb565b6040516103f0919061229d565b60405180910390f35b34801561040557600080fd5b5061040e610b03565b60405161041b91906121d7565b60405180910390f35b34801561043057600080fd5b5061044b600480360381019061044691906123fa565b610ba4565b005b34801561045957600080fd5b50610474600480360381019061046f919061243a565b610bba565b005b34801561048257600080fd5b5061049d600480360381019061049891906125c2565b610dcd565b005b3480156104ab57600080fd5b506104c660048036038101906104c1919061222f565b610dea565b6040516104d3919061229d565b60405180910390f35b3480156104e857600080fd5b5061050360048036038101906104fe919061222f565b610dfc565b60405161051091906121d7565b60405180910390f35b34801561052557600080fd5b50610540600480360381019061053b9190612645565b610e65565b60405161054d919061212c565b60405180910390f35b34801561056257600080fd5b5061057d600480360381019061057891906123a1565b610f07565b005b60007f80ac58cd000000000000000000000000000000000000000000000000000000007bffffffffffffffffffffffffffffffffffffffffffffffffffffffff1916827bffffffffffffffffffffffffffffffffffffffffffffffffffffffff1916148061064a57507f5b5e139f000000000000000000000000000000000000000000000000000000007bffffffffffffffffffffffffffffffffffffffffffffffffffffffff1916827bffffffffffffffffffffffffffffffffffffffffffffffffffffffff1916145b8061065a575061065982610f8d565b5b9050919050565b6060600061066d610ff7565b905080600001805461067e906126b4565b80601f01602080910402602001604051908101604052809291908181526020018280546106aa906126b4565b80156106f75780601f106106cc576101008083540402835291602001916106f7565b820191906000526020600020905b8154815290600101906020018083116106da57829003601f168201915b505050505091505090565b600061070d8261101f565b50610717826110a7565b9050919050565b610730828261072b6110f2565b6110fa565b5050565b60015481565b600080541161077e576040517f08c379a000000000000000000000000000000000000000000000000000000000815260040161077590612731565b60405180910390fd5b6001543410156107c3576040517f08c379a00000000000000000000000000000000000000000000000000000000081526004016107ba9061279d565b60405180910390fd5b6000600260008154809291906107d8906127ec565b9190505590506107e8338261110c565b60016000546107f79190612834565b60008190555050565b600073ffffffffffffffffffffffffffffffffffffffff168273ffffffffffffffffffffffffffffffffffffffff16036108725760006040517f64a0ae92000000000000000000000000000000000000000000000000000000008152600401610869919061229d565b60405180910390fd5b600061088683836108816110f2565b61112a565b90508373ffffffffffffffffffffffffffffffffffffffff168173ffffffffffffffffffffffffffffffffffffffff16146108fc578382826040517f64283d7b0000000000000000000000000000000000000000000000000000000081526004016108f393929190612868565b60405180910390fd5b50505050565b61090a611357565b600047905060008111610952576040517f08c379a0000000000000000000000000000000000000000000000000000000008152600401610949906128eb565b60405180910390fd5b61095a610acb565b73ffffffffffffffffffffffffffffffffffffffff166108fc829081150290604051600060405180830381858888f1935050505015801561099f573d6000803e3d6000fd5b5050565b60005481565b6109c483838360405180602001604052806000815250610dcd565b505050565b60008054905090565b60006109dd8261101f565b9050919050565b6000806109ef610ff7565b9050600073ffffffffffffffffffffffffffffffffffffffff168373ffffffffffffffffffffffffffffffffffffffff1603610a635760006040517f89c62b64000000000000000000000000000000000000000000000000000000008152600401610a5a919061229d565b60405180910390fd5b8060030160008473ffffffffffffffffffffffffffffffffffffffff1673ffffffffffffffffffffffffffffffffffffffff16815260200190815260200160002054915050919050565b610ab5611357565b610abf60006113de565b565b6000600154905090565b600080610ad66114b5565b90508060000160009054906101000a900473ffffffffffffffffffffffffffffffffffffffff1691505090565b60606000610b0f610ff7565b9050806001018054610b20906126b4565b80601f0160208091040260200160405190810160405280929190818152602001828054610b4c906126b4565b8015610b995780601f10610b6e57610100808354040283529160200191610b99565b820191906000526020600020905b815481529060010190602001808311610b7c57829003601f168201915b505050505091505090565b610bb6610baf6110f2565b83836114dd565b5050565b6000610bc461165b565b905060008160000160089054906101000a900460ff1615905060008260000160009054906101000a900467ffffffffffffffff1690506000808267ffffffffffffffff16148015610c125750825b9050600060018367ffffffffffffffff16148015610c47575060003073ffffffffffffffffffffffffffffffffffffffff163b145b905081158015610c55575080155b15610c8c576040517ff92ee8a900000000000000000000000000000000000000000000000000000000815260040160405180910390fd5b60018560000160006101000a81548167ffffffffffffffff021916908367ffffffffffffffff1602179055508315610cdc5760018560000160086101000a81548160ff0219169083151502179055505b610d506040518060400160405280600681526020017f5469636b657400000000000000000000000000000000000000000000000000008152506040518060400160405280600381526020017f54434b0000000000000000000000000000000000000000000000000000000000815250611683565b610d5986611699565b87600081905550866001819055508315610dc35760008560000160086101000a81548160ff0219169083151502179055507fc7f505b2f371ae2175ee4913f4499e1f2633a7b5936321eed1cdaeb6115181d26001604051610dba9190612964565b60405180910390a15b5050505050505050565b610dd8848484610800565b610de4848484846116ad565b50505050565b6000610df5826109d2565b9050919050565b6060610e078261101f565b506000610e12611864565b90506000815111610e325760405180602001604052806000815250610e5d565b80610e3c8461187b565b604051602001610e4d9291906129bb565b6040516020818303038152906040525b915050919050565b600080610e70610ff7565b90508060050160008573ffffffffffffffffffffffffffffffffffffffff1673ffffffffffffffffffffffffffffffffffffffff16815260200190815260200160002060008473ffffffffffffffffffffffffffffffffffffffff1673ffffffffffffffffffffffffffffffffffffffff16815260200190815260200160002060009054906101000a900460ff1691505092915050565b610f0f611357565b600073ffffffffffffffffffffffffffffffffffffffff168173ffffffffffffffffffffffffffffffffffffffff1603610f815760006040517f1e4fbdf7000000000000000000000000000000000000000000000000000000008152600401610f78919061229d565b60405180910390fd5b610f8a816113de565b50565b60007f01ffc9a7000000000000000000000000000000000000000000000000000000007bffffffffffffffffffffffffffffffffffffffffffffffffffffffff1916827bffffffffffffffffffffffffffffffffffffffffffffffffffffffff1916149050919050565b60007f80bb2b638cc20bc4d0a60d66940f3ab4a00c1d7b313497ca82fb0b4ab0079300905090565b60008061102b83611949565b9050600073ffffffffffffffffffffffffffffffffffffffff168173ffffffffffffffffffffffffffffffffffffffff160361109e57826040517f7e2732890000000000000000000000000000000000000000000000000000000081526004016110959190612333565b60405180910390fd5b80915050919050565b6000806110b2610ff7565b905080600401600084815260200190815260200160002060009054906101000a900473ffffffffffffffffffffffffffffffffffffffff16915050919050565b600033905090565b6111078383836001611994565b505050565b611126828260405180602001604052806000815250611b68565b5050565b600080611135610ff7565b9050600061114285611949565b9050600073ffffffffffffffffffffffffffffffffffffffff168473ffffffffffffffffffffffffffffffffffffffff161461118457611183818587611b84565b5b600073ffffffffffffffffffffffffffffffffffffffff168173ffffffffffffffffffffffffffffffffffffffff1614611217576111c6600086600080611994565b60018260030160008373ffffffffffffffffffffffffffffffffffffffff1673ffffffffffffffffffffffffffffffffffffffff168152602001908152602001600020600082825403925050819055505b600073ffffffffffffffffffffffffffffffffffffffff168673ffffffffffffffffffffffffffffffffffffffff161461129c5760018260030160008873ffffffffffffffffffffffffffffffffffffffff1673ffffffffffffffffffffffffffffffffffffffff168152602001908152602001600020600082825401925050819055505b8582600201600087815260200190815260200160002060006101000a81548173ffffffffffffffffffffffffffffffffffffffff021916908373ffffffffffffffffffffffffffffffffffffffff160217905550848673ffffffffffffffffffffffffffffffffffffffff168273ffffffffffffffffffffffffffffffffffffffff167fddf252ad1be2c89b69c2b068fc378daa952ba7f163c4a11628f55a4df523b3ef60405160405180910390a480925050509392505050565b61135f6110f2565b73ffffffffffffffffffffffffffffffffffffffff1661137d610acb565b73ffffffffffffffffffffffffffffffffffffffff16146113dc576113a06110f2565b6040517f118cdaa70000000000000000000000000000000000000000000000000000000081526004016113d3919061229d565b60405180910390fd5b565b60006113e86114b5565b905060008160000160009054906101000a900473ffffffffffffffffffffffffffffffffffffffff169050828260000160006101000a81548173ffffffffffffffffffffffffffffffffffffffff021916908373ffffffffffffffffffffffffffffffffffffffff1602179055508273ffffffffffffffffffffffffffffffffffffffff168173ffffffffffffffffffffffffffffffffffffffff167f8be0079c531659141344cd1fd0a4f28419497f9722a3daafe3b4186f6b6457e060405160405180910390a3505050565b60007f9016d09d72d40fdae2fd8ceac6b6234c7706214fd39c1cd1e609a0528c199300905090565b60006114e7610ff7565b9050600073ffffffffffffffffffffffffffffffffffffffff168373ffffffffffffffffffffffffffffffffffffffff160361155a57826040517f5b08ba18000000000000000000000000000000000000000000000000000000008152600401611551919061229d565b60405180910390fd5b818160050160008673ffffffffffffffffffffffffffffffffffffffff1673ffffffffffffffffffffffffffffffffffffffff16815260200190815260200160002060008573ffffffffffffffffffffffffffffffffffffffff1673ffffffffffffffffffffffffffffffffffffffff16815260200190815260200160002060006101000a81548160ff0219169083151502179055508273ffffffffffffffffffffffffffffffffffffffff168473ffffffffffffffffffffffffffffffffffffffff167f17307eab39ab6107e8899845ad3d59bd9653f200f220920489ca2b5937696c318460405161164d919061212c565b60405180910390a350505050565b60007ff0c57e16840df040f15088dc2f81fe391c3923bec73e23a9662efc9c229c6a00905090565b61168b611c48565b6116958282611c88565b5050565b6116a1611c48565b6116aa81611cc5565b50565b60008373ffffffffffffffffffffffffffffffffffffffff163b111561185e578273ffffffffffffffffffffffffffffffffffffffff1663150b7a026116f16110f2565b8685856040518563ffffffff1660e01b81526004016117139493929190612a34565b6020604051808303816000875af192505050801561174f57506040513d601f19601f8201168201806040525081019061174c9190612a95565b60015b6117d3573d806000811461177f576040519150601f19603f3d011682016040523d82523d6000602084013e611784565b606091505b5060008151036117cb57836040517f64a0ae920000000000000000000000000000000000000000000000000000000081526004016117c2919061229d565b60405180910390fd5b805181602001fd5b63150b7a0260e01b7bffffffffffffffffffffffffffffffffffffffffffffffffffffffff1916817bffffffffffffffffffffffffffffffffffffffffffffffffffffffff19161461185c57836040517f64a0ae92000000000000000000000000000000000000000000000000000000008152600401611853919061229d565b60405180910390fd5b505b50505050565b606060405180602001604052806000815250905090565b60606000600161188a84611d4b565b01905060008167ffffffffffffffff8111156118a9576118a8612497565b5b6040519080825280601f01601f1916602001820160405280156118db5781602001600182028036833780820191505090505b509050600082602001820190505b60011561193e578080600190039150507f3031323334353637383961626364656600000000000000000000000000000000600a86061a8153600a858161193257611931612ac2565b5b049450600085036118e9575b819350505050919050565b600080611954610ff7565b905080600201600084815260200190815260200160002060009054906101000a900473ffffffffffffffffffffffffffffffffffffffff16915050919050565b600061199e610ff7565b905081806119d95750600073ffffffffffffffffffffffffffffffffffffffff168373ffffffffffffffffffffffffffffffffffffffff1614155b15611b0d5760006119e98561101f565b9050600073ffffffffffffffffffffffffffffffffffffffff168473ffffffffffffffffffffffffffffffffffffffff1614158015611a5457508373ffffffffffffffffffffffffffffffffffffffff168173ffffffffffffffffffffffffffffffffffffffff1614155b8015611a675750611a658185610e65565b155b15611aa957836040517fa9fbf51f000000000000000000000000000000000000000000000000000000008152600401611aa0919061229d565b60405180910390fd5b8215611b0b57848673ffffffffffffffffffffffffffffffffffffffff168273ffffffffffffffffffffffffffffffffffffffff167f8c5be1e5ebec7d5bd14f71427d1e84f3dd0314c0f7b2291e5b200ac8c7c3b92560405160405180910390a45b505b8481600401600086815260200190815260200160002060006101000a81548173ffffffffffffffffffffffffffffffffffffffff021916908373ffffffffffffffffffffffffffffffffffffffff1602179055505050505050565b611b728383611e9e565b611b7f60008484846116ad565b505050565b611b8f838383611f97565b611c4357600073ffffffffffffffffffffffffffffffffffffffff168373ffffffffffffffffffffffffffffffffffffffff1603611c0457806040517f7e273289000000000000000000000000000000000000000000000000000000008152600401611bfb9190612333565b60405180910390fd5b81816040517f177e802f000000000000000000000000000000000000000000000000000000008152600401611c3a929190612af1565b60405180910390fd5b505050565b611c50612058565b611c86576040517fd7e6bcf800000000000000000000000000000000000000000000000000000000815260040160405180910390fd5b565b611c90611c48565b6000611c9a610ff7565b905082816000019081611cad9190612cbc565b5081816001019081611cbf9190612cbc565b50505050565b611ccd611c48565b600073ffffffffffffffffffffffffffffffffffffffff168173ffffffffffffffffffffffffffffffffffffffff1603611d3f5760006040517f1e4fbdf7000000000000000000000000000000000000000000000000000000008152600401611d36919061229d565b60405180910390fd5b611d48816113de565b50565b600080600090507a184f03e93ff9f4daa797ed6e38ed64bf6a1f0100000000000000008310611da9577a184f03e93ff9f4daa797ed6e38ed64bf6a1f0100000000000000008381611d9f57611d9e612ac2565b5b0492506040810190505b6d04ee2d6d415b85acef81000000008310611de6576d04ee2d6d415b85acef81000000008381611ddc57611ddb612ac2565b5b0492506020810190505b662386f26fc100008310611e1557662386f26fc100008381611e0b57611e0a612ac2565b5b0492506010810190505b6305f5e1008310611e3e576305f5e1008381611e3457611e33612ac2565b5b0492506008810190505b6127108310611e63576127108381611e5957611e58612ac2565b5b0492506004810190505b60648310611e865760648381611e7c57611e7b612ac2565b5b0492506002810190505b600a8310611e95576001810190505b80915050919050565b600073ffffffffffffffffffffffffffffffffffffffff168273ffffffffffffffffffffffffffffffffffffffff1603611f105760006040517f64a0ae92000000000000000000000000000000000000000000000000000000008152600401611f07919061229d565b60405180910390fd5b6000611f1e8383600061112a565b9050600073ffffffffffffffffffffffffffffffffffffffff168173ffffffffffffffffffffffffffffffffffffffff1614611f925760006040517f73c6ac6e000000000000000000000000000000000000000000000000000000008152600401611f89919061229d565b60405180910390fd5b505050565b60008073ffffffffffffffffffffffffffffffffffffffff168373ffffffffffffffffffffffffffffffffffffffff161415801561204f57508273ffffffffffffffffffffffffffffffffffffffff168473ffffffffffffffffffffffffffffffffffffffff161480612010575061200f8484610e65565b5b8061204e57508273ffffffffffffffffffffffffffffffffffffffff16612036836110a7565b73ffffffffffffffffffffffffffffffffffffffff16145b5b90509392505050565b600061206261165b565b60000160089054906101000a900460ff16905090565b6000604051905090565b600080fd5b600080fd5b60007fffffffff0000000000000000000000000000000000000000000000000000000082169050919050565b6120c18161208c565b81146120cc57600080fd5b50565b6000813590506120de816120b8565b92915050565b6000602082840312156120fa576120f9612082565b5b6000612108848285016120cf565b91505092915050565b60008115159050919050565b61212681612111565b82525050565b6000602082019050612141600083018461211d565b92915050565b600081519050919050565b600082825260208201905092915050565b60005b83811015612181578082015181840152602081019050612166565b60008484015250505050565b6000601f19601f8301169050919050565b60006121a982612147565b6121b38185612152565b93506121c3818560208601612163565b6121cc8161218d565b840191505092915050565b600060208201905081810360008301526121f1818461219e565b905092915050565b6000819050919050565b61220c816121f9565b811461221757600080fd5b50565b60008135905061222981612203565b92915050565b60006020828403121561224557612244612082565b5b60006122538482850161221a565b91505092915050565b600073ffffffffffffffffffffffffffffffffffffffff82169050919050565b60006122878261225c565b9050919050565b6122978161227c565b82525050565b60006020820190506122b2600083018461228e565b92915050565b6122c18161227c565b81146122cc57600080fd5b50565b6000813590506122de816122b8565b92915050565b600080604083850312156122fb576122fa612082565b5b6000612309858286016122cf565b925050602061231a8582860161221a565b9150509250929050565b61232d816121f9565b82525050565b60006020820190506123486000830184612324565b92915050565b60008060006060848603121561236757612366612082565b5b6000612375868287016122cf565b9350506020612386868287016122cf565b92505060406123978682870161221a565b9150509250925092565b6000602082840312156123b7576123b6612082565b5b60006123c5848285016122cf565b91505092915050565b6123d781612111565b81146123e257600080fd5b50565b6000813590506123f4816123ce565b92915050565b6000806040838503121561241157612410612082565b5b600061241f858286016122cf565b9250506020612430858286016123e5565b9150509250929050565b60008060006060848603121561245357612452612082565b5b60006124618682870161221a565b93505060206124728682870161221a565b9250506040612483868287016122cf565b9150509250925092565b600080fd5b600080fd5b7f4e487b7100000000000000000000000000000000000000000000000000000000600052604160045260246000fd5b6124cf8261218d565b810181811067ffffffffffffffff821117156124ee576124ed612497565b5b80604052505050565b6000612501612078565b905061250d82826124c6565b919050565b600067ffffffffffffffff82111561252d5761252c612497565b5b6125368261218d565b9050602081019050919050565b82818337600083830152505050565b600061256561256084612512565b6124f7565b90508281526020810184848401111561258157612580612492565b5b61258c848285612543565b509392505050565b600082601f8301126125a9576125a861248d565b5b81356125b9848260208601612552565b91505092915050565b600080600080608085870312156125dc576125db612082565b5b60006125ea878288016122cf565b94505060206125fb878288016122cf565b935050604061260c8782880161221a565b925050606085013567ffffffffffffffff81111561262d5761262c612087565b5b61263987828801612594565b91505092959194509250565b6000806040838503121561265c5761265b612082565b5b600061266a858286016122cf565b925050602061267b858286016122cf565b9150509250929050565b7f4e487b7100000000000000000000000000000000000000000000000000000000600052602260045260246000fd5b600060028204905060018216806126cc57607f821691505b6020821081036126df576126de612685565b5b50919050565b7f4e6f7420656e6f756768207469636b6574730000000000000000000000000000600082015250565b600061271b601283612152565b9150612726826126e5565b602082019050919050565b6000602082019050818103600083015261274a8161270e565b9050919050565b7f4e6f7420656e6f756768204d4154494321000000000000000000000000000000600082015250565b6000612787601183612152565b915061279282612751565b602082019050919050565b600060208201905081810360008301526127b68161277a565b9050919050565b7f4e487b7100000000000000000000000000000000000000000000000000000000600052601160045260246000fd5b60006127f7826121f9565b91507fffffffffffffffffffffffffffffffffffffffffffffffffffffffffffffffff8203612829576128286127bd565b5b600182019050919050565b600061283f826121f9565b915061284a836121f9565b9250828203905081811115612862576128616127bd565b5b92915050565b600060608201905061287d600083018661228e565b61288a6020830185612324565b612897604083018461228e565b949350505050565b7f4e6f2062616c616e636520746f20776974686472617700000000000000000000600082015250565b60006128d5601683612152565b91506128e08261289f565b602082019050919050565b60006020820190508181036000830152612904816128c8565b9050919050565b6000819050919050565b600067ffffffffffffffff82169050919050565b6000819050919050565b600061294e6129496129448461290b565b612929565b612915565b9050919050565b61295e81612933565b82525050565b60006020820190506129796000830184612955565b92915050565b600081905092915050565b600061299582612147565b61299f818561297f565b93506129af818560208601612163565b80840191505092915050565b60006129c7828561298a565b91506129d3828461298a565b91508190509392505050565b600081519050919050565b600082825260208201905092915050565b6000612a06826129df565b612a1081856129ea565b9350612a20818560208601612163565b612a298161218d565b840191505092915050565b6000608082019050612a49600083018761228e565b612a56602083018661228e565b612a636040830185612324565b8181036060830152612a7581846129fb565b905095945050505050565b600081519050612a8f816120b8565b92915050565b600060208284031215612aab57612aaa612082565b5b6000612ab984828501612a80565b91505092915050565b7f4e487b7100000000000000000000000000000000000000000000000000000000600052601260045260246000fd5b6000604082019050612b06600083018561228e565b612b136020830184612324565b9392505050565b60008190508160005260206000209050919050565b60006020601f8301049050919050565b600082821b905092915050565b600060088302612b7c7fffffffffffffffffffffffffffffffffffffffffffffffffffffffffffffffff82612b3f565b612b868683612b3f565b95508019841693508086168417925050509392505050565b6000612bb9612bb4612baf846121f9565b612929565b6121f9565b9050919050565b6000819050919050565b612bd383612b9e565b612be7612bdf82612bc0565b848454612b4c565b825550505050565b600090565b612bfc612bef565b612c07818484612bca565b505050565b5b81811015612c2b57612c20600082612bf4565b600181019050612c0d565b5050565b601f821115612c7057612c4181612b1a565b612c4a84612b2f565b81016020851015612c59578190505b612c6d612c6585612b2f565b830182612c0c565b50505b505050565b600082821c905092915050565b6000612c9360001984600802612c75565b1980831691505092915050565b6000612cac8383612c82565b9150826002028217905092915050565b612cc582612147565b67ffffffffffffffff811115612cde57612cdd612497565b5b612ce882546126b4565b612cf3828285612c2f565b600060209050601f831160018114612d265760008415612d14578287015190505b612d1e8582612ca0565b865550612d86565b601f198416612d3486612b1a565b60005b82811015612d5c57848901518255600182019150602085019450602081019050612d37565b86831015612d795784890151612d75601f891682612c82565b8355505b6001600288020188555050505b50505050505056fea2646970667358221220cd16771047214a527c60045c305f7ef004fd9853d29c26708041463be2d4937364736f6c63430008140033",
  "linkReferences": {},
  "deployedLinkReferences": {}
}